{
  "address": "0x96bfD331Cf0d1af7aCD2f6f52919408233Aa2a42",
  "abi": [
    {
      "inputs": [
        {
          "internalType": "string",
          "name": "name_",
          "type": "string"
        },
        {
          "internalType": "string",
          "name": "symbol_",
          "type": "string"
        },
        {
          "internalType": "address",
          "name": "owner_",
          "type": "address"
        }
      ],
      "stateMutability": "nonpayable",
      "type": "constructor"
    },
    {
      "inputs": [
        {
          "internalType": "uint8",
          "name": "got",
          "type": "uint8"
        },
        {
          "internalType": "uint8",
          "name": "expected",
          "type": "uint8"
        }
      ],
      "name": "InvalidEncryptedInput",
      "type": "error"
    },
    {
      "inputs": [
        {
          "internalType": "address",
          "name": "receiver",
          "type": "address"
        }
      ],
      "name": "InvalidReceiver",
      "type": "error"
    },
    {
      "inputs": [
        {
          "internalType": "address",
          "name": "sender",
          "type": "address"
        }
      ],
      "name": "InvalidSender",
      "type": "error"
    },
    {
      "inputs": [
        {
          "internalType": "address",
          "name": "owner",
          "type": "address"
        }
      ],
      "name": "OwnableInvalidOwner",
      "type": "error"
    },
    {
      "inputs": [
        {
          "internalType": "address",
          "name": "account",
          "type": "address"
        }
      ],
      "name": "OwnableUnauthorizedAccount",
      "type": "error"
    },
    {
      "inputs": [
        {
          "internalType": "int32",
          "name": "value",
          "type": "int32"
        }
      ],
      "name": "SecurityZoneOutOfBounds",
      "type": "error"
    },
    {
      "inputs": [
        {
          "internalType": "uint256",
          "name": "tokenId",
          "type": "uint256"
        }
      ],
      "name": "TokenDoesNotExist",
      "type": "error"
    },
    {
      "inputs": [
        {
          "internalType": "address",
          "name": "caller",
          "type": "address"
        }
      ],
      "name": "UnauthorizedCaller",
      "type": "error"
    },
    {
      "anonymous": false,
      "inputs": [
        {
          "indexed": true,
          "internalType": "uint256",
          "name": "tokenId",
          "type": "uint256"
        },
        {
          "indexed": false,
          "internalType": "string",
          "name": "publicURI",
          "type": "string"
        },
        {
          "indexed": false,
          "internalType": "string",
          "name": "encryptedURI",
          "type": "string"
        }
      ],
      "name": "NFTMinted",
      "type": "event"
    },
    {
      "anonymous": false,
      "inputs": [
        {
          "indexed": true,
          "internalType": "address",
          "name": "previousOwner",
          "type": "address"
        },
        {
          "indexed": true,
          "internalType": "address",
          "name": "newOwner",
          "type": "address"
        }
      ],
      "name": "OwnershipTransferStarted",
      "type": "event"
    },
    {
      "anonymous": false,
      "inputs": [
        {
          "indexed": true,
          "internalType": "address",
          "name": "previousOwner",
          "type": "address"
        },
        {
          "indexed": true,
          "internalType": "address",
          "name": "newOwner",
          "type": "address"
        }
      ],
      "name": "OwnershipTransferred",
      "type": "event"
    },
    {
      "anonymous": false,
      "inputs": [
        {
          "indexed": true,
          "internalType": "uint256",
          "name": "tokenId",
          "type": "uint256"
        },
        {
          "indexed": true,
          "internalType": "address",
          "name": "from",
          "type": "address"
        },
        {
          "indexed": true,
          "internalType": "address",
          "name": "to",
          "type": "address"
        }
      ],
      "name": "Transfer",
      "type": "event"
    },
    {
      "inputs": [],
      "name": "acceptOwnership",
      "outputs": [],
      "stateMutability": "nonpayable",
      "type": "function"
    },
    {
      "inputs": [
        {
          "internalType": "uint256",
          "name": "tokenId",
          "type": "uint256"
        },
        {
          "internalType": "address",
          "name": "to",
          "type": "address"
        },
        {
          "components": [
            {
              "internalType": "uint256",
              "name": "ctHash",
              "type": "uint256"
            },
            {
              "internalType": "uint8",
              "name": "securityZone",
              "type": "uint8"
            },
            {
              "internalType": "uint8",
              "name": "utype",
              "type": "uint8"
            },
            {
              "internalType": "bytes",
              "name": "signature",
              "type": "bytes"
            }
          ],
          "internalType": "struct InEaddress",
          "name": "encryptedTo",
          "type": "tuple"
        }
      ],
      "name": "confidentialTransfer",
      "outputs": [],
      "stateMutability": "nonpayable",
      "type": "function"
    },
    {
      "inputs": [
        {
          "internalType": "uint256",
          "name": "tokenId",
          "type": "uint256"
        },
        {
          "internalType": "address",
          "name": "to",
          "type": "address"
        },
        {
          "internalType": "eaddress",
          "name": "encryptedTo",
          "type": "uint256"
        }
      ],
      "name": "confidentialTransfer",
      "outputs": [],
      "stateMutability": "nonpayable",
      "type": "function"
    },
    {
      "inputs": [
        {
          "internalType": "uint256",
          "name": "tokenId",
          "type": "uint256"
        }
      ],
      "name": "encryptedOwnerOf",
      "outputs": [
        {
          "internalType": "eaddress",
          "name": "",
          "type": "uint256"
        }
      ],
      "stateMutability": "view",
      "type": "function"
    },
    {
      "inputs": [
        {
          "internalType": "uint256",
          "name": "tokenId",
          "type": "uint256"
        }
      ],
      "name": "encryptedTokenURI",
      "outputs": [
        {
          "internalType": "string",
          "name": "",
          "type": "string"
        }
      ],
      "stateMutability": "view",
      "type": "function"
    },
    {
      "inputs": [],
      "name": "getAllMintedTokens",
      "outputs": [
        {
          "internalType": "uint256[]",
          "name": "",
          "type": "uint256[]"
        }
      ],
      "stateMutability": "view",
      "type": "function"
    },
    {
      "inputs": [
        {
          "components": [
            {
              "internalType": "uint256",
              "name": "ctHash",
              "type": "uint256"
            },
            {
              "internalType": "uint8",
              "name": "securityZone",
              "type": "uint8"
            },
            {
              "internalType": "uint8",
              "name": "utype",
              "type": "uint8"
            },
            {
              "internalType": "bytes",
              "name": "signature",
              "type": "bytes"
            }
          ],
          "internalType": "struct InEaddress",
          "name": "encryptedOwner",
          "type": "tuple"
        },
        {
          "internalType": "string",
          "name": "publicURI",
          "type": "string"
        },
        {
          "internalType": "string",
          "name": "encryptedURI",
          "type": "string"
        }
      ],
      "name": "mint",
      "outputs": [
        {
          "internalType": "uint256",
          "name": "",
          "type": "uint256"
        }
      ],
      "stateMutability": "nonpayable",
      "type": "function"
    },
    {
      "inputs": [],
      "name": "name",
      "outputs": [
        {
          "internalType": "string",
          "name": "",
          "type": "string"
        }
      ],
      "stateMutability": "view",
      "type": "function"
    },
    {
      "inputs": [],
      "name": "owner",
      "outputs": [
        {
          "internalType": "address",
          "name": "",
          "type": "address"
        }
      ],
      "stateMutability": "view",
      "type": "function"
    },
    {
      "inputs": [],
      "name": "pendingOwner",
      "outputs": [
        {
          "internalType": "address",
          "name": "",
          "type": "address"
        }
      ],
      "stateMutability": "view",
      "type": "function"
    },
    {
      "inputs": [
        {
          "internalType": "uint256",
          "name": "tokenId",
          "type": "uint256"
        }
      ],
      "name": "publicTokenURI",
      "outputs": [
        {
          "internalType": "string",
          "name": "",
          "type": "string"
        }
      ],
      "stateMutability": "view",
      "type": "function"
    },
    {
      "inputs": [],
      "name": "renounceOwnership",
      "outputs": [],
      "stateMutability": "nonpayable",
      "type": "function"
    },
    {
      "inputs": [],
      "name": "symbol",
      "outputs": [
        {
          "internalType": "string",
          "name": "",
          "type": "string"
        }
      ],
      "stateMutability": "view",
      "type": "function"
    },
    {
      "inputs": [],
      "name": "totalSupply",
      "outputs": [
        {
          "internalType": "uint256",
          "name": "",
          "type": "uint256"
        }
      ],
      "stateMutability": "view",
      "type": "function"
    },
    {
      "inputs": [
        {
          "internalType": "address",
          "name": "newOwner",
          "type": "address"
        }
      ],
      "name": "transferOwnership",
      "outputs": [],
      "stateMutability": "nonpayable",
      "type": "function"
    }
  ],
  "transactionHash": "0x4994eda750de3eb4579848c0069053d8b3f865d86ce1177c6301f41b1e9a4385",
  "args": [
    "RescueDAO NFT",
    "RDAO",
    "0xA830Cd34D83C10Ba3A8bB2F25ff8BBae9BcD0125"
  ],
  "numDeployments": 1,
  "solcInputHash": "07a2cb792879aa554705d57dd206a5bb",
  "bytecode": "0x608060405234801561000f575f80fd5b506040516115bd3803806115bd83398101604081905261002e91610195565b806001600160a01b03811661005c57604051631e4fbdf760e01b81525f600482015260240160405180910390fd5b6100658161008e565b5060026100728482610298565b50600361007f8382610298565b50506001600455506103579050565b600180546001600160a01b03191690556100a7816100aa565b50565b5f80546001600160a01b038381166001600160a01b0319831681178455604051919092169283917f8be0079c531659141344cd1fd0a4f28419497f9722a3daafe3b4186f6b6457e09190a35050565b634e487b7160e01b5f52604160045260245ffd5b5f82601f83011261011c575f80fd5b81516001600160401b0380821115610136576101366100f9565b604051601f8301601f19908116603f0116810190828211818310171561015e5761015e6100f9565b81604052838152866020858801011115610176575f80fd5b8360208701602083015e5f602085830101528094505050505092915050565b5f805f606084860312156101a7575f80fd5b83516001600160401b03808211156101bd575f80fd5b6101c98783880161010d565b945060208601519150808211156101de575f80fd5b506101eb8682870161010d565b604086015190935090506001600160a01b0381168114610209575f80fd5b809150509250925092565b600181811c9082168061022857607f821691505b60208210810361024657634e487b7160e01b5f52602260045260245ffd5b50919050565b601f82111561029357805f5260205f20601f840160051c810160208510156102715750805b601f840160051c820191505b81811015610290575f815560010161027d565b50505b505050565b81516001600160401b038111156102b1576102b16100f9565b6102c5816102bf8454610214565b8461024c565b602080601f8311600181146102f8575f84156102e15750858301515b5f19600386901b1c1916600185901b17855561034f565b5f85815260208120601f198616915b8281101561032657888601518255948401946001909101908401610307565b508582101561034357878501515f19600388901b60f8161c191681555b505060018460011b0185555b505050505050565b611259806103645f395ff3fe608060405234801561000f575f80fd5b50600436106100f0575f3560e01c806379ba509711610093578063abd9c30a11610063578063abd9c30a146101c3578063bad8f1a1146101d6578063e30c3978146101e9578063f2fde38b146101fa575f80fd5b806379ba50971461017c5780638da5cb5b1461018457806395d89b41146101a857806396fc25c1146101b0575f80fd5b806318160ddd116100ce57806318160ddd1461013a578063268ac6c51461014c57806346a6a9f31461015f578063715018a614610174575f80fd5b806306fdde03146100f4578063080b0179146101125780630e4e053814610127575b5f80fd5b6100fc61020d565b6040516101099190610c5b565b60405180910390f35b61011a610299565b6040516101099190610ca7565b6100fc610135366004610cb9565b6102ef565b6008545b604051908152602001610109565b61013e61015a366004610e5d565b6103ba565b61017261016d366004610f01565b6104c0565b005b6101726104de565b6101726104f1565b5f546001600160a01b03165b6040516001600160a01b039091168152602001610109565b6100fc610535565b61013e6101be366004610cb9565b610542565b6101726101d1366004610f54565b61057e565b6100fc6101e4366004610cb9565b6105b7565b6001546001600160a01b0316610190565b610172610208366004610f86565b6105fa565b6002805461021a90610f9f565b80601f016020809104026020016040519081016040528092919081815260200182805461024690610f9f565b80156102915780601f1061026857610100808354040283529160200191610291565b820191905f5260205f20905b81548152906001019060200180831161027457829003601f168201915b505050505081565b606060088054806020026020016040519081016040528092919081815260200182805480156102e557602002820191905f5260205f20905b8154815260200190600101908083116102d1575b5050505050905090565b60606102fa8261066a565b61031f5760405163c927e5bf60e01b8152600481018390526024015b60405180910390fd5b5f828152600760205260409020805461033790610f9f565b80601f016020809104026020016040519081016040528092919081815260200182805461036390610f9f565b80156103ae5780601f10610385576101008083540402835291602001916103ae565b820191905f5260205f20905b81548152906001019060200180831161039157829003601f168201915b50505050509050919050565b5f6103c3610681565b600480545f91826103d383610fd7565b9190505590506103e2876106ad565b5f82815260056020908152604080832093909355600690522061040686888361103f565b505f81815260076020526040902061041f84868361103f565b5060088054600181019091557ff3f7a9fe364faab93b216da50a3214154f22a0a2b415b23a84c8169e8b636ee3018190555f81815260056020526040902054610478906104735f546001600160a01b031690565b610749565b807f41606caf4dd304a95df0764afbcc8afb210bf0a49b44e7b00d5f913400c88d38878787876040516104ae9493929190611121565b60405180910390a29695505050505050565b5f6104ca826106ad565b90506104d8843385846107bc565b50505050565b6104e6610681565b6104ef5f610843565b565b60015433906001600160a01b031681146105295760405163118cdaa760e01b81526001600160a01b0382166004820152602401610316565b61053281610843565b50565b6003805461021a90610f9f565b5f61054c8261066a565b61056c5760405163c927e5bf60e01b815260048101839052602401610316565b505f9081526005602052604090205490565b6105878161085c565b6105a65760405163d86ad9cf60e01b8152336004820152602401610316565b6105b2833384846107bc565b505050565b60606105c28261066a565b6105e25760405163c927e5bf60e01b815260048101839052602401610316565b5f828152600660205260409020805461033790610f9f565b610602610681565b600180546001600160a01b0383166001600160a01b031990911681179091556106325f546001600160a01b031690565b6001600160a01b03167f38d16b8cac22d99fc7c124b9cd0de2d3fa1faef420bfe791d8c362d765e2270060405160405180910390a350565b5f808211801561067b575060045482105b92915050565b5f546001600160a01b031633146104ef5760405163118cdaa760e01b8152336004820152602401610316565b60408101515f9060079060ff1681146106ec5760408084015190516367cf307160e01b815260ff91821660048201529082166024820152604401610316565b60408051608080820183525f808352602080840182905283850191909152606092830183905283519182018452865182528087015160ff1690820152600792810192909252808501519082015261074290610865565b9392505050565b604051631974142760e21b8152600481018390526001600160a01b038216602482015273ea30c4b8b44078bbf8a6ef5b9f1ec1626c7848d9906365d0509c906044015f604051808303815f87803b1580156107a2575f80fd5b505af11580156107b4573d5f803e3d5ffd5b505050505050565b6107c58461066a565b6107e55760405163c927e5bf60e01b815260048101859052602401610316565b6001600160a01b03831661080e576040516313053d9360e21b81525f6004820152602401610316565b6001600160a01b03821661083757604051639cfea58360e01b81525f6004820152602401610316565b6104d8848484846108e0565b600180546001600160a01b0319169055610532816109e6565b5f81151561067b565b6040516313fce3b160e11b81525f9073ea30c4b8b44078bbf8a6ef5b9f1ec1626c7848d9906327f9c762906108a09085903390600401611152565b6020604051808303815f875af11580156108bc573d5f803e3d5ffd5b505050506040513d601f19601f8201168201806040525081019061067b91906111a9565b6001600160a01b038316610903575f848152600560205260409020819055610914565b5f8481526005602052604090208190555b6001600160a01b03821661093a5761092b5f610a35565b5f858152600560205260409020555b5f8481526005602052604090205461095190610a40565b6001600160a01b03831615610978575f848152600560205260409020546109789084610749565b6001600160a01b0382161561099f575f8481526005602052604090205461099f9083610749565b816001600160a01b0316836001600160a01b0316857f0a429aba3d89849a2db0153e4534d95c46a1d83c8109d73893f55ebc44010ff460405160405180910390a450505050565b5f80546001600160a01b038381166001600160a01b0319831681178455604051919092169283917f8be0079c531659141344cd1fd0a4f28419497f9722a3daafe3b4186f6b6457e09190a35050565b5f61067b825f610aa9565b604051631974142760e21b81526004810182905230602482015273ea30c4b8b44078bbf8a6ef5b9f1ec1626c7848d9906365d0509c906044015f604051808303815f87803b158015610a90575f80fd5b505af1158015610aa2573d5f803e3d5ffd5b5050505050565b5f80610ac0846001600160a01b0316600785610ac8565b949350505050565b604080515f8082526020820190925273ea30c4b8b44078bbf8a6ef5b9f1ec1626c7848d990631888debd908590601a90610b0e898960ff16610b098a610b6d565b610ba2565b6040518563ffffffff1660e01b8152600401610b2d94939291906111c0565b6020604051808303815f875af1158015610b49573d5f803e3d5ffd5b505050506040513d601f19601f82011682018060405250810190610ac091906111a9565b5f808260030b1215610b98576040516311ead17f60e31b8152600383900b6004820152602401610316565b5063ffffffff1690565b604080516003808252608082019092526060915f919060208201848036833701905050905084815f81518110610bda57610bda61120f565b6020026020010181815250508381600181518110610bfa57610bfa61120f565b6020026020010181815250508281600281518110610c1a57610c1a61120f565b6020908102919091010152949350505050565b5f81518084528060208401602086015e5f602082860101526020601f19601f83011685010191505092915050565b602081525f6107426020830184610c2d565b5f815180845260208085019450602084015f5b83811015610c9c57815187529582019590820190600101610c80565b509495945050505050565b602081525f6107426020830184610c6d565b5f60208284031215610cc9575f80fd5b5035919050565b634e487b7160e01b5f52604160045260245ffd5b6040516080810167ffffffffffffffff81118282101715610d0757610d07610cd0565b60405290565b604051601f8201601f1916810167ffffffffffffffff81118282101715610d3657610d36610cd0565b604052919050565b803560ff81168114610d4e575f80fd5b919050565b5f60808284031215610d63575f80fd5b610d6b610ce4565b9050813581526020610d7e818401610d3e565b81830152610d8e60408401610d3e565b6040830152606083013567ffffffffffffffff80821115610dad575f80fd5b818501915085601f830112610dc0575f80fd5b813581811115610dd257610dd2610cd0565b610de4601f8201601f19168501610d0d565b91508082528684828501011115610df9575f80fd5b80848401858401375f8482840101525080606085015250505092915050565b5f8083601f840112610e28575f80fd5b50813567ffffffffffffffff811115610e3f575f80fd5b602083019150836020828501011115610e56575f80fd5b9250929050565b5f805f805f60608688031215610e71575f80fd5b853567ffffffffffffffff80821115610e88575f80fd5b610e9489838a01610d53565b96506020880135915080821115610ea9575f80fd5b610eb589838a01610e18565b90965094506040880135915080821115610ecd575f80fd5b50610eda88828901610e18565b969995985093965092949392505050565b80356001600160a01b0381168114610d4e575f80fd5b5f805f60608486031215610f13575f80fd5b83359250610f2360208501610eeb565b9150604084013567ffffffffffffffff811115610f3e575f80fd5b610f4a86828701610d53565b9150509250925092565b5f805f60608486031215610f66575f80fd5b83359250610f7660208501610eeb565b9150604084013590509250925092565b5f60208284031215610f96575f80fd5b61074282610eeb565b600181811c90821680610fb357607f821691505b602082108103610fd157634e487b7160e01b5f52602260045260245ffd5b50919050565b5f60018201610ff457634e487b7160e01b5f52601160045260245ffd5b5060010190565b601f8211156105b257805f5260205f20601f840160051c810160208510156110205750805b601f840160051c820191505b81811015610aa2575f815560010161102c565b67ffffffffffffffff83111561105757611057610cd0565b61106b836110658354610f9f565b83610ffb565b5f601f84116001811461109c575f85156110855750838201355b5f19600387901b1c1916600186901b178355610aa2565b5f83815260208120601f198716915b828110156110cb57868501358255602094850194600190920191016110ab565b50868210156110e7575f1960f88860031b161c19848701351681555b505060018560011b0183555050505050565b81835281816020850137505f828201602090810191909152601f909101601f19169091010190565b604081525f6111346040830186886110f9565b82810360208401526111478185876110f9565b979650505050505050565b604081528251604082015260ff602084015116606082015260ff60408401511660808201525f6060840151608060a084015261119160c0840182610c2d565b91505060018060a01b03831660208301529392505050565b5f602082840312156111b9575f80fd5b5051919050565b60ff851681525f602085106111e357634e487b7160e01b5f52602160045260245ffd5b846020830152608060408301526111fd6080830185610c6d565b82810360608401526111478185610c6d565b634e487b7160e01b5f52603260045260245ffdfea26469706673582212200713ecff7ffae34bd23e4187e9b54b1cdf9c62572204ffc9b3db6f3aac49bc9064736f6c63430008190033",
  "devdoc": {
    "errors": {
      "InvalidReceiver(address)": [
        {
          "details": "The given receiver `receiver` is invalid for transfers."
        }
      ],
      "InvalidSender(address)": [
        {
          "details": "The given sender `sender` is invalid for transfers."
        }
      ],
      "OwnableInvalidOwner(address)": [
        {
          "details": "The owner is not a valid owner account. (eg. `address(0)`)"
        }
      ],
      "OwnableUnauthorizedAccount(address)": [
        {
          "details": "The caller account is not authorized to perform an operation."
        }
      ],
      "TokenDoesNotExist(uint256)": [
        {
          "details": "Token does not exist"
        }
      ],
      "UnauthorizedCaller(address)": [
        {
          "details": "Unauthorized caller"
        }
      ]
    },
    "kind": "dev",
    "methods": {
      "acceptOwnership()": {
        "details": "The new owner accepts the ownership transfer."
      },
      "confidentialTransfer(uint256,address,(uint256,uint8,uint8,bytes))": {
        "params": {
          "encryptedTo": "The encrypted address input from the client",
          "to": "The recipient address",
          "tokenId": "The token to transfer"
        }
      },
      "confidentialTransfer(uint256,address,uint256)": {
        "params": {
          "encryptedTo": "The encrypted address",
          "to": "The recipient address",
          "tokenId": "The token to transfer"
        }
      },
      "mint((uint256,uint8,uint8,bytes),string,string)": {
        "params": {
          "encryptedOwner": "The encrypted address input from the client",
          "encryptedURI": "The encrypted IPFS URI",
          "publicURI": "The public IPFS URI"
        }
      },
      "owner()": {
        "details": "Returns the address of the current owner."
      },
      "pendingOwner()": {
        "details": "Returns the address of the pending owner."
      },
      "renounceOwnership()": {
        "details": "Leaves the contract without owner. It will not be possible to call `onlyOwner` functions. Can only be called by the current owner. NOTE: Renouncing ownership will leave the contract without an owner, thereby disabling any functionality that is only available to the owner."
      },
      "transferOwnership(address)": {
        "details": "Starts the ownership transfer of the contract to a new account. Replaces the pending transfer if there is one. Can only be called by the current owner. Setting `newOwner` to the zero address is allowed; this can be used to cancel an initiated ownership transfer."
      }
    },
    "version": 1
  },
  "userdoc": {
    "kind": "user",
    "methods": {
      "confidentialTransfer(uint256,address,(uint256,uint8,uint8,bytes))": {
        "notice": "Transfer NFT with encrypted owner address and input proof"
      },
      "confidentialTransfer(uint256,address,uint256)": {
        "notice": "Transfer NFT using already encrypted address"
      },
      "encryptedOwnerOf(uint256)": {
        "notice": "Get the encrypted owner of a token"
      },
      "encryptedTokenURI(uint256)": {
        "notice": "Get the encrypted URI of a token"
      },
      "getAllMintedTokens()": {
        "notice": "List all minted token IDs"
      },
      "mint((uint256,uint8,uint8,bytes),string,string)": {
        "notice": "Mint a new NFT with encrypted owner and dual URIs"
      },
      "publicTokenURI(uint256)": {
        "notice": "Get the public URI of a token"
      },
      "totalSupply()": {
        "notice": "Get total number of minted tokens"
      }
    },
    "version": 1
  },
  "storageLayout": {
    "storage": [
      {
        "astId": 17420,
        "contract": "contracts/ERC721.sol:SimpleConfidentialNFT",
        "label": "_owner",
        "offset": 0,
        "slot": "0",
        "type": "t_address"
      },
      {
        "astId": 17568,
        "contract": "contracts/ERC721.sol:SimpleConfidentialNFT",
        "label": "_pendingOwner",
        "offset": 0,
        "slot": "1",
        "type": "t_address"
      },
      {
        "astId": 22457,
        "contract": "contracts/ERC721.sol:SimpleConfidentialNFT",
        "label": "name",
        "offset": 0,
        "slot": "2",
        "type": "t_string_storage"
      },
      {
        "astId": 22459,
        "contract": "contracts/ERC721.sol:SimpleConfidentialNFT",
        "label": "symbol",
        "offset": 0,
        "slot": "3",
        "type": "t_string_storage"
      },
      {
        "astId": 22461,
        "contract": "contracts/ERC721.sol:SimpleConfidentialNFT",
        "label": "_nextTokenId",
        "offset": 0,
        "slot": "4",
        "type": "t_uint256"
      },
      {
        "astId": 22466,
        "contract": "contracts/ERC721.sol:SimpleConfidentialNFT",
        "label": "_encryptedOwners",
        "offset": 0,
        "slot": "5",
        "type": "t_mapping(t_uint256,t_userDefinedValueType(eaddress)32)"
      },
      {
        "astId": 22470,
        "contract": "contracts/ERC721.sol:SimpleConfidentialNFT",
        "label": "_publicTokenURIs",
        "offset": 0,
        "slot": "6",
        "type": "t_mapping(t_uint256,t_string_storage)"
      },
      {
        "astId": 22474,
        "contract": "contracts/ERC721.sol:SimpleConfidentialNFT",
        "label": "_encryptedTokenURIs",
        "offset": 0,
        "slot": "7",
        "type": "t_mapping(t_uint256,t_string_storage)"
      },
      {
        "astId": 22477,
        "contract": "contracts/ERC721.sol:SimpleConfidentialNFT",
        "label": "_allTokens",
        "offset": 0,
        "slot": "8",
        "type": "t_array(t_uint256)dyn_storage"
      }
    ],
    "types": {
      "t_address": {
        "encoding": "inplace",
        "label": "address",
        "numberOfBytes": "20"
      },
      "t_array(t_uint256)dyn_storage": {
        "base": "t_uint256",
        "encoding": "dynamic_array",
        "label": "uint256[]",
        "numberOfBytes": "32"
      },
      "t_mapping(t_uint256,t_string_storage)": {
        "encoding": "mapping",
        "key": "t_uint256",
        "label": "mapping(uint256 => string)",
        "numberOfBytes": "32",
        "value": "t_string_storage"
      },
      "t_mapping(t_uint256,t_userDefinedValueType(eaddress)32)": {
        "encoding": "mapping",
        "key": "t_uint256",
        "label": "mapping(uint256 => eaddress)",
        "numberOfBytes": "32",
        "value": "t_userDefinedValueType(eaddress)32"
      },
      "t_string_storage": {
        "encoding": "bytes",
        "label": "string",
        "numberOfBytes": "32"
      },
      "t_uint256": {
        "encoding": "inplace",
        "label": "uint256",
        "numberOfBytes": "32"
      },
      "t_userDefinedValueType(eaddress)32": {
        "encoding": "inplace",
        "label": "eaddress",
        "numberOfBytes": "32"
      }
    }
  }
}